{
  "_format": "hh-sol-artifact-1",
  "contractName": "MedicalData",
  "sourceName": "contracts/MedicalData.sol",
  "abi": [
    {
      "inputs": [],
      "stateMutability": "nonpayable",
      "type": "constructor"
    },
    {
      "inputs": [
        {
          "internalType": "uint256",
          "name": "",
          "type": "uint256"
        }
      ],
      "name": "exames",
      "outputs": [
        {
          "internalType": "bool",
          "name": "exists",
          "type": "bool"
        },
        {
          "internalType": "string",
          "name": "nome",
          "type": "string"
        },
        {
          "internalType": "address",
          "name": "hospital",
          "type": "address"
        },
        {
          "internalType": "address",
          "name": "paciente",
          "type": "address"
        },
        {
          "internalType": "uint256",
          "name": "epochTime",
          "type": "uint256"
        },
        {
          "internalType": "string",
          "name": "laudo",
          "type": "string"
        },
        {
          "internalType": "uint256",
          "name": "consulta",
          "type": "uint256"
        }
      ],
      "stateMutability": "view",
      "type": "function"
    },
    {
      "inputs": [
        {
          "internalType": "uint256",
          "name": "IDconsulta",
          "type": "uint256"
        }
      ],
      "name": "getConsulta",
      "outputs": [
        {
          "components": [
            {
              "internalType": "bool",
              "name": "exists",
              "type": "bool"
            },
            {
              "internalType": "string",
              "name": "area",
              "type": "string"
            },
            {
              "internalType": "string",
              "name": "especificacao",
              "type": "string"
            },
            {
              "internalType": "address",
              "name": "hospital",
              "type": "address"
            },
            {
              "internalType": "address",
              "name": "medico",
              "type": "address"
            },
            {
              "internalType": "address",
              "name": "paciente",
              "type": "address"
            },
            {
              "internalType": "uint256",
              "name": "epochTime",
              "type": "uint256"
            },
            {
              "internalType": "string",
              "name": "laudo",
              "type": "string"
            },
            {
              "internalType": "uint256[]",
              "name": "exames",
              "type": "uint256[]"
            }
          ],
          "internalType": "struct Consulta",
          "name": "",
          "type": "tuple"
        }
      ],
      "stateMutability": "view",
      "type": "function"
    },
    {
      "inputs": [
        {
          "internalType": "address",
          "name": "medico",
          "type": "address"
        },
        {
          "internalType": "address",
          "name": "paciente",
          "type": "address"
        }
      ],
      "name": "getConsultasMedicoPaciente",
      "outputs": [
        {
          "internalType": "uint256[]",
          "name": "",
          "type": "uint256[]"
        }
      ],
      "stateMutability": "view",
      "type": "function"
    },
    {
      "inputs": [
        {
          "internalType": "address",
          "name": "paciente",
          "type": "address"
        }
      ],
      "name": "getConsultasPaciente",
      "outputs": [
        {
          "internalType": "uint256[]",
          "name": "",
          "type": "uint256[]"
        }
      ],
      "stateMutability": "view",
      "type": "function"
    },
    {
      "inputs": [
        {
          "internalType": "address",
          "name": "paciente",
          "type": "address"
        }
      ],
      "name": "getExamesPaciente",
      "outputs": [
        {
          "internalType": "uint256[]",
          "name": "",
          "type": "uint256[]"
        }
      ],
      "stateMutability": "view",
      "type": "function"
    },
    {
      "inputs": [
        {
          "internalType": "address",
          "name": "paciente",
          "type": "address"
        }
      ],
      "name": "getHistory",
      "outputs": [
        {
          "components": [
            {
              "internalType": "bool",
              "name": "exists",
              "type": "bool"
            },
            {
              "internalType": "string",
              "name": "area",
              "type": "string"
            },
            {
              "internalType": "string",
              "name": "especificacao",
              "type": "string"
            },
            {
              "internalType": "address",
              "name": "hospital",
              "type": "address"
            },
            {
              "internalType": "address",
              "name": "medico",
              "type": "address"
            },
            {
              "internalType": "address",
              "name": "paciente",
              "type": "address"
            },
            {
              "internalType": "uint256",
              "name": "epochTime",
              "type": "uint256"
            },
            {
              "internalType": "string",
              "name": "laudo",
              "type": "string"
            },
            {
              "internalType": "uint256[]",
              "name": "exames",
              "type": "uint256[]"
            }
          ],
          "internalType": "struct Consulta[]",
          "name": "",
          "type": "tuple[]"
        },
        {
          "components": [
            {
              "internalType": "bool",
              "name": "exists",
              "type": "bool"
            },
            {
              "internalType": "string",
              "name": "nome",
              "type": "string"
            },
            {
              "internalType": "address",
              "name": "hospital",
              "type": "address"
            },
            {
              "internalType": "address",
              "name": "paciente",
              "type": "address"
            },
            {
              "internalType": "uint256",
              "name": "epochTime",
              "type": "uint256"
            },
            {
              "internalType": "string",
              "name": "laudo",
              "type": "string"
            },
            {
              "internalType": "uint256",
              "name": "consulta",
              "type": "uint256"
            }
          ],
          "internalType": "struct Exame[]",
          "name": "",
          "type": "tuple[]"
        }
      ],
      "stateMutability": "view",
      "type": "function"
    },
    {
      "inputs": [],
      "name": "getPacientes",
      "outputs": [
        {
          "internalType": "address[]",
          "name": "",
          "type": "address[]"
        }
      ],
      "stateMutability": "view",
      "type": "function"
    },
    {
      "inputs": [],
      "name": "hospital",
      "outputs": [
        {
          "internalType": "address",
          "name": "",
          "type": "address"
        }
      ],
      "stateMutability": "view",
      "type": "function"
    },
    {
      "inputs": [
        {
          "internalType": "uint256",
          "name": "IDconsulta",
          "type": "uint256"
        },
        {
          "internalType": "string",
          "name": "area",
          "type": "string"
        },
        {
          "internalType": "string",
          "name": "especificacao",
          "type": "string"
        },
        {
          "internalType": "address",
          "name": "medico",
          "type": "address"
        },
        {
          "internalType": "address",
          "name": "paciente",
          "type": "address"
        },
        {
          "internalType": "uint256",
          "name": "epochTime",
          "type": "uint256"
        },
        {
          "internalType": "string",
          "name": "laudo",
          "type": "string"
        }
      ],
      "name": "postConsulta",
      "outputs": [],
      "stateMutability": "nonpayable",
      "type": "function"
    },
    {
      "inputs": [
        {
          "internalType": "uint256",
          "name": "IDexame",
          "type": "uint256"
        },
        {
          "internalType": "string",
          "name": "nome",
          "type": "string"
        },
        {
          "internalType": "address",
          "name": "paciente",
          "type": "address"
        },
        {
          "internalType": "string",
          "name": "laudo",
          "type": "string"
        },
        {
          "internalType": "uint256",
          "name": "epochTime",
          "type": "uint256"
        },
        {
          "internalType": "uint256",
          "name": "consulta",
          "type": "uint256"
        }
      ],
      "name": "postExame",
      "outputs": [],
      "stateMutability": "nonpayable",
      "type": "function"
    }
  ],
  "bytecode": "0x608060405234801561001057600080fd5b50336000806101000a81548173ffffffffffffffffffffffffffffffffffffffff021916908373ffffffffffffffffffffffffffffffffffffffff160217905550612eb5806100606000396000f3fe608060405234801561001057600080fd5b506004361061009e5760003560e01c8063827ab11e11610066578063827ab11e1461019a578063aa2fedde146101ca578063ad4b1ecd146101e8578063d9088aea14610204578063f7404e5e146102205761009e565b80631f59f77a146100a35780631fc5af5c146100d9578063315c078314610109578063323a6b11146101395780638039681114610169575b600080fd5b6100bd60048036038101906100b89190611bf1565b61023e565b6040516100d09796959493929190611d19565b60405180910390f35b6100f360048036038101906100ee9190611dc2565b6103dd565b6040516101009190611ead565b60405180910390f35b610123600480360381019061011e9190611bf1565b610474565b6040516101309190612080565b60405180910390f35b610153600480360381019061014e91906120a2565b6107d7565b6040516101609190611ead565b60405180910390f35b610183600480360381019061017e9190611dc2565b6108ac565b6040516101919291906123e3565b60405180910390f35b6101b460048036038101906101af9190611dc2565b611029565b6040516101c19190611ead565b60405180910390f35b6101d26110c0565b6040516101df919061241a565b60405180910390f35b61020260048036038101906101fd919061249a565b6110e4565b005b61021e60048036038101906102199190612569565b6114b6565b005b610228611918565b604051610235919061271b565b60405180910390f35b60066020528060005260406000206000915090508060000160009054906101000a900460ff16908060010180546102749061276c565b80601f01602080910402602001604051908101604052809291908181526020018280546102a09061276c565b80156102ed5780601f106102c2576101008083540402835291602001916102ed565b820191906000526020600020905b8154815290600101906020018083116102d057829003601f168201915b5050505050908060020160009054906101000a900473ffffffffffffffffffffffffffffffffffffffff16908060030160009054906101000a900473ffffffffffffffffffffffffffffffffffffffff16908060040154908060050180546103549061276c565b80601f01602080910402602001604051908101604052809291908181526020018280546103809061276c565b80156103cd5780601f106103a2576101008083540402835291602001916103cd565b820191906000526020600020905b8154815290600101906020018083116103b057829003601f168201915b5050505050908060060154905087565b6060600760008373ffffffffffffffffffffffffffffffffffffffff1673ffffffffffffffffffffffffffffffffffffffff16815260200190815260200160002080548060200260200160405190810160405280929190818152602001828054801561046857602002820191906000526020600020905b815481526020019060010190808311610454575b50505050509050919050565b61047c611ab6565b60016000838152602001908152602001600020604051806101200160405290816000820160009054906101000a900460ff161515151581526020016001820180546104c69061276c565b80601f01602080910402602001604051908101604052809291908181526020018280546104f29061276c565b801561053f5780601f106105145761010080835404028352916020019161053f565b820191906000526020600020905b81548152906001019060200180831161052257829003601f168201915b505050505081526020016002820180546105589061276c565b80601f01602080910402602001604051908101604052809291908181526020018280546105849061276c565b80156105d15780601f106105a6576101008083540402835291602001916105d1565b820191906000526020600020905b8154815290600101906020018083116105b457829003601f168201915b505050505081526020016003820160009054906101000a900473ffffffffffffffffffffffffffffffffffffffff1673ffffffffffffffffffffffffffffffffffffffff1673ffffffffffffffffffffffffffffffffffffffff1681526020016004820160009054906101000a900473ffffffffffffffffffffffffffffffffffffffff1673ffffffffffffffffffffffffffffffffffffffff1673ffffffffffffffffffffffffffffffffffffffff1681526020016005820160009054906101000a900473ffffffffffffffffffffffffffffffffffffffff1673ffffffffffffffffffffffffffffffffffffffff1673ffffffffffffffffffffffffffffffffffffffff168152602001600682015481526020016007820180546106f69061276c565b80601f01602080910402602001604051908101604052809291908181526020018280546107229061276c565b801561076f5780601f106107445761010080835404028352916020019161076f565b820191906000526020600020905b81548152906001019060200180831161075257829003601f168201915b50505050508152602001600882018054806020026020016040519081016040528092919081815260200182805480156107c757602002820191906000526020600020905b8154815260200190600101908083116107b3575b5050505050815250509050919050565b6060600360008473ffffffffffffffffffffffffffffffffffffffff1673ffffffffffffffffffffffffffffffffffffffff16815260200190815260200160002060008373ffffffffffffffffffffffffffffffffffffffff1673ffffffffffffffffffffffffffffffffffffffff16815260200190815260200160002080548060200260200160405190810160405280929190818152602001828054801561089f57602002820191906000526020600020905b81548152602001906001019080831161088b575b5050505050905092915050565b6060806000600260008573ffffffffffffffffffffffffffffffffffffffff1673ffffffffffffffffffffffffffffffffffffffff16815260200190815260200160002090506000818054905067ffffffffffffffff8111156109125761091161279d565b5b60405190808252806020026020018201604052801561094b57816020015b610938611ab6565b8152602001906001900390816109305790505b50905060005b8280549050811015610cff5760016000848381548110610974576109736127cc565b5b90600052602060002001548152602001908152602001600020604051806101200160405290816000820160009054906101000a900460ff161515151581526020016001820180546109c49061276c565b80601f01602080910402602001604051908101604052809291908181526020018280546109f09061276c565b8015610a3d5780601f10610a1257610100808354040283529160200191610a3d565b820191906000526020600020905b815481529060010190602001808311610a2057829003601f168201915b50505050508152602001600282018054610a569061276c565b80601f0160208091040260200160405190810160405280929190818152602001828054610a829061276c565b8015610acf5780601f10610aa457610100808354040283529160200191610acf565b820191906000526020600020905b815481529060010190602001808311610ab257829003601f168201915b505050505081526020016003820160009054906101000a900473ffffffffffffffffffffffffffffffffffffffff1673ffffffffffffffffffffffffffffffffffffffff1673ffffffffffffffffffffffffffffffffffffffff1681526020016004820160009054906101000a900473ffffffffffffffffffffffffffffffffffffffff1673ffffffffffffffffffffffffffffffffffffffff1673ffffffffffffffffffffffffffffffffffffffff1681526020016005820160009054906101000a900473ffffffffffffffffffffffffffffffffffffffff1673ffffffffffffffffffffffffffffffffffffffff1673ffffffffffffffffffffffffffffffffffffffff16815260200160068201548152602001600782018054610bf49061276c565b80601f0160208091040260200160405190810160405280929190818152602001828054610c209061276c565b8015610c6d5780601f10610c4257610100808354040283529160200191610c6d565b820191906000526020600020905b815481529060010190602001808311610c5057829003601f168201915b5050505050815260200160088201805480602002602001604051908101604052809291908181526020018280548015610cc557602002820191906000526020600020905b815481526020019060010190808311610cb1575b505050505081525050828281518110610ce157610ce06127cc565b5b60200260200101819052508080610cf79061282a565b915050610951565b506000600760008773ffffffffffffffffffffffffffffffffffffffff1673ffffffffffffffffffffffffffffffffffffffff16815260200190815260200160002090506000818054905067ffffffffffffffff811115610d6357610d6261279d565b5b604051908082528060200260200182016040528015610d9c57816020015b610d89611b46565b815260200190600190039081610d815790505b50905060005b82805490508110156110195760066000848381548110610dc557610dc46127cc565b5b906000526020600020015481526020019081526020016000206040518060e00160405290816000820160009054906101000a900460ff16151515158152602001600182018054610e149061276c565b80601f0160208091040260200160405190810160405280929190818152602001828054610e409061276c565b8015610e8d5780601f10610e6257610100808354040283529160200191610e8d565b820191906000526020600020905b815481529060010190602001808311610e7057829003601f168201915b505050505081526020016002820160009054906101000a900473ffffffffffffffffffffffffffffffffffffffff1673ffffffffffffffffffffffffffffffffffffffff1673ffffffffffffffffffffffffffffffffffffffff1681526020016003820160009054906101000a900473ffffffffffffffffffffffffffffffffffffffff1673ffffffffffffffffffffffffffffffffffffffff1673ffffffffffffffffffffffffffffffffffffffff16815260200160048201548152602001600582018054610f5c9061276c565b80601f0160208091040260200160405190810160405280929190818152602001828054610f889061276c565b8015610fd55780601f10610faa57610100808354040283529160200191610fd5565b820191906000526020600020905b815481529060010190602001808311610fb857829003601f168201915b50505050508152602001600682015481525050828281518110610ffb57610ffa6127cc565b5b602002602001018190525080806110119061282a565b915050610da2565b5082819550955050505050915091565b6060600260008373ffffffffffffffffffffffffffffffffffffffff1673ffffffffffffffffffffffffffffffffffffffff1681526020019081526020016000208054806020026020016040519081016040528092919081815260200182805480156110b457602002820191906000526020600020905b8154815260200190600101908083116110a0575b50505050509050919050565b60008054906101000a900473ffffffffffffffffffffffffffffffffffffffff1681565b60008054906101000a900473ffffffffffffffffffffffffffffffffffffffff1673ffffffffffffffffffffffffffffffffffffffff163373ffffffffffffffffffffffffffffffffffffffff1614611172576040517f08c379a0000000000000000000000000000000000000000000000000000000008152600401611169906128be565b60405180910390fd5b600073ffffffffffffffffffffffffffffffffffffffff168573ffffffffffffffffffffffffffffffffffffffff16036111e1576040517f08c379a00000000000000000000000000000000000000000000000000000000081526004016111d89061292a565b60405180910390fd5b600081148061125157508473ffffffffffffffffffffffffffffffffffffffff166001600083815260200190815260200160002060050160009054906101000a900473ffffffffffffffffffffffffffffffffffffffff1673ffffffffffffffffffffffffffffffffffffffff16145b611290576040517f08c379a0000000000000000000000000000000000000000000000000000000008152600401611287906129bc565b60405180910390fd5b6000600660008a815260200190815260200160002090508060000160009054906101000a900460ff16156112f9576040517f08c379a00000000000000000000000000000000000000000000000000000000081526004016112f090612a28565b60405180910390fd5b60018160000160006101000a81548160ff0219169083151502179055508787826001019182611329929190612bff565b50858160030160006101000a81548173ffffffffffffffffffffffffffffffffffffffff021916908373ffffffffffffffffffffffffffffffffffffffff16021790555060008054906101000a900473ffffffffffffffffffffffffffffffffffffffff168160020160006101000a81548173ffffffffffffffffffffffffffffffffffffffff021916908373ffffffffffffffffffffffffffffffffffffffff16021790555084848260050191826113e3929190612bff565b508281600401819055508181600601819055506000821461143c57600160008381526020019081526020016000206008018990806001815401808255809150506001900390600052602060002001600090919091909150555b600760008773ffffffffffffffffffffffffffffffffffffffff1673ffffffffffffffffffffffffffffffffffffffff1681526020019081526020016000208990806001815401808255809150506001900390600052602060002001600090919091909150556114ab866119a6565b505050505050505050565b60008054906101000a900473ffffffffffffffffffffffffffffffffffffffff1673ffffffffffffffffffffffffffffffffffffffff163373ffffffffffffffffffffffffffffffffffffffff1614611544576040517f08c379a000000000000000000000000000000000000000000000000000000000815260040161153b906128be565b60405180910390fd5b60008a03611587576040517f08c379a000000000000000000000000000000000000000000000000000000000815260040161157e90612d1b565b60405180910390fd5b600073ffffffffffffffffffffffffffffffffffffffff168573ffffffffffffffffffffffffffffffffffffffff16036115f6576040517f08c379a00000000000000000000000000000000000000000000000000000000081526004016115ed90612d87565b60405180910390fd5b600073ffffffffffffffffffffffffffffffffffffffff168473ffffffffffffffffffffffffffffffffffffffff1603611665576040517f08c379a000000000000000000000000000000000000000000000000000000000815260040161165c90612df3565b60405180910390fd5b6000600160008c815260200190815260200160002090508060000160009054906101000a900460ff16156116ce576040517f08c379a00000000000000000000000000000000000000000000000000000000081526004016116c590612e5f565b60405180910390fd5b60018160000160006101000a81548160ff02191690831515021790555089898260010191826116fe929190612bff565b508787826002019182611712929190612bff565b50858160040160006101000a81548173ffffffffffffffffffffffffffffffffffffffff021916908373ffffffffffffffffffffffffffffffffffffffff160217905550848160050160006101000a81548173ffffffffffffffffffffffffffffffffffffffff021916908373ffffffffffffffffffffffffffffffffffffffff160217905550338160030160006101000a81548173ffffffffffffffffffffffffffffffffffffffff021916908373ffffffffffffffffffffffffffffffffffffffff16021790555083816006018190555082828260070191826117f8929190612bff565b50600260008673ffffffffffffffffffffffffffffffffffffffff1673ffffffffffffffffffffffffffffffffffffffff1681526020019081526020016000208b9080600181540180825580915050600190039060005260206000200160009091909190915055600360008773ffffffffffffffffffffffffffffffffffffffff1673ffffffffffffffffffffffffffffffffffffffff16815260200190815260200160002060008673ffffffffffffffffffffffffffffffffffffffff1673ffffffffffffffffffffffffffffffffffffffff1681526020019081526020016000208b908060018154018082558091505060019003906000526020600020016000909190919091505561190b856119a6565b5050505050505050505050565b6060600580548060200260200160405190810160405280929190818152602001828054801561199c57602002820191906000526020600020905b8160009054906101000a900473ffffffffffffffffffffffffffffffffffffffff1673ffffffffffffffffffffffffffffffffffffffff1681526020019060010190808311611952575b5050505050905090565b600460008273ffffffffffffffffffffffffffffffffffffffff1673ffffffffffffffffffffffffffffffffffffffff16815260200190815260200160002060009054906101000a900460ff16611ab3576001600460008373ffffffffffffffffffffffffffffffffffffffff1673ffffffffffffffffffffffffffffffffffffffff16815260200190815260200160002060006101000a81548160ff0219169083151502179055506005819080600181540180825580915050600190039060005260206000200160009091909190916101000a81548173ffffffffffffffffffffffffffffffffffffffff021916908373ffffffffffffffffffffffffffffffffffffffff1602179055505b50565b6040518061012001604052806000151581526020016060815260200160608152602001600073ffffffffffffffffffffffffffffffffffffffff168152602001600073ffffffffffffffffffffffffffffffffffffffff168152602001600073ffffffffffffffffffffffffffffffffffffffff1681526020016000815260200160608152602001606081525090565b6040518060e0016040528060001515815260200160608152602001600073ffffffffffffffffffffffffffffffffffffffff168152602001600073ffffffffffffffffffffffffffffffffffffffff1681526020016000815260200160608152602001600081525090565b600080fd5b600080fd5b6000819050919050565b611bce81611bbb565b8114611bd957600080fd5b50565b600081359050611beb81611bc5565b92915050565b600060208284031215611c0757611c06611bb1565b5b6000611c1584828501611bdc565b91505092915050565b60008115159050919050565b611c3381611c1e565b82525050565b600081519050919050565b600082825260208201905092915050565b60005b83811015611c73578082015181840152602081019050611c58565b60008484015250505050565b6000601f19601f8301169050919050565b6000611c9b82611c39565b611ca58185611c44565b9350611cb5818560208601611c55565b611cbe81611c7f565b840191505092915050565b600073ffffffffffffffffffffffffffffffffffffffff82169050919050565b6000611cf482611cc9565b9050919050565b611d0481611ce9565b82525050565b611d1381611bbb565b82525050565b600060e082019050611d2e600083018a611c2a565b8181036020830152611d408189611c90565b9050611d4f6040830188611cfb565b611d5c6060830187611cfb565b611d696080830186611d0a565b81810360a0830152611d7b8185611c90565b9050611d8a60c0830184611d0a565b98975050505050505050565b611d9f81611ce9565b8114611daa57600080fd5b50565b600081359050611dbc81611d96565b92915050565b600060208284031215611dd857611dd7611bb1565b5b6000611de684828501611dad565b91505092915050565b600081519050919050565b600082825260208201905092915050565b6000819050602082019050919050565b611e2481611bbb565b82525050565b6000611e368383611e1b565b60208301905092915050565b6000602082019050919050565b6000611e5a82611def565b611e648185611dfa565b9350611e6f83611e0b565b8060005b83811015611ea0578151611e878882611e2a565b9750611e9283611e42565b925050600181019050611e73565b5085935050505092915050565b60006020820190508181036000830152611ec78184611e4f565b905092915050565b611ed881611c1e565b82525050565b600082825260208201905092915050565b6000611efa82611c39565b611f048185611ede565b9350611f14818560208601611c55565b611f1d81611c7f565b840191505092915050565b611f3181611ce9565b82525050565b600082825260208201905092915050565b6000611f5382611def565b611f5d8185611f37565b9350611f6883611e0b565b8060005b83811015611f99578151611f808882611e2a565b9750611f8b83611e42565b925050600181019050611f6c565b5085935050505092915050565b600061012083016000830151611fbf6000860182611ecf565b5060208301518482036020860152611fd78282611eef565b91505060408301518482036040860152611ff18282611eef565b91505060608301516120066060860182611f28565b5060808301516120196080860182611f28565b5060a083015161202c60a0860182611f28565b5060c083015161203f60c0860182611e1b565b5060e083015184820360e08601526120578282611eef565b9150506101008301518482036101008601526120738282611f48565b9150508091505092915050565b6000602082019050818103600083015261209a8184611fa6565b905092915050565b600080604083850312156120b9576120b8611bb1565b5b60006120c785828601611dad565b92505060206120d885828601611dad565b9150509250929050565b600081519050919050565b600082825260208201905092915050565b6000819050602082019050919050565b6000610120830160008301516121276000860182611ecf565b506020830151848203602086015261213f8282611eef565b915050604083015184820360408601526121598282611eef565b915050606083015161216e6060860182611f28565b5060808301516121816080860182611f28565b5060a083015161219460a0860182611f28565b5060c08301516121a760c0860182611e1b565b5060e083015184820360e08601526121bf8282611eef565b9150506101008301518482036101008601526121db8282611f48565b9150508091505092915050565b60006121f4838361210e565b905092915050565b6000602082019050919050565b6000612214826120e2565b61221e81856120ed565b935083602082028501612230856120fe565b8060005b8581101561226c578484038952815161224d85826121e8565b9450612258836121fc565b925060208a01995050600181019050612234565b50829750879550505050505092915050565b600081519050919050565b600082825260208201905092915050565b6000819050602082019050919050565b600060e0830160008301516122c26000860182611ecf565b50602083015184820360208601526122da8282611eef565b91505060408301516122ef6040860182611f28565b5060608301516123026060860182611f28565b5060808301516123156080860182611e1b565b5060a083015184820360a086015261232d8282611eef565b91505060c083015161234260c0860182611e1b565b508091505092915050565b600061235983836122aa565b905092915050565b6000602082019050919050565b60006123798261227e565b6123838185612289565b9350836020820285016123958561229a565b8060005b858110156123d157848403895281516123b2858261234d565b94506123bd83612361565b925060208a01995050600181019050612399565b50829750879550505050505092915050565b600060408201905081810360008301526123fd8185612209565b90508181036020830152612411818461236e565b90509392505050565b600060208201905061242f6000830184611cfb565b92915050565b600080fd5b600080fd5b600080fd5b60008083601f84011261245a57612459612435565b5b8235905067ffffffffffffffff8111156124775761247661243a565b5b6020830191508360018202830111156124935761249261243f565b5b9250929050565b60008060008060008060008060c0898b0312156124ba576124b9611bb1565b5b60006124c88b828c01611bdc565b985050602089013567ffffffffffffffff8111156124e9576124e8611bb6565b5b6124f58b828c01612444565b975097505060406125088b828c01611dad565b955050606089013567ffffffffffffffff81111561252957612528611bb6565b5b6125358b828c01612444565b945094505060806125488b828c01611bdc565b92505060a06125598b828c01611bdc565b9150509295985092959890939650565b60008060008060008060008060008060e08b8d03121561258c5761258b611bb1565b5b600061259a8d828e01611bdc565b9a505060208b013567ffffffffffffffff8111156125bb576125ba611bb6565b5b6125c78d828e01612444565b995099505060408b013567ffffffffffffffff8111156125ea576125e9611bb6565b5b6125f68d828e01612444565b975097505060606126098d828e01611dad565b955050608061261a8d828e01611dad565b94505060a061262b8d828e01611bdc565b93505060c08b013567ffffffffffffffff81111561264c5761264b611bb6565b5b6126588d828e01612444565b92509250509295989b9194979a5092959850565b600081519050919050565b600082825260208201905092915050565b6000819050602082019050919050565b60006126a48383611f28565b60208301905092915050565b6000602082019050919050565b60006126c88261266c565b6126d28185612677565b93506126dd83612688565b8060005b8381101561270e5781516126f58882612698565b9750612700836126b0565b9250506001810190506126e1565b5085935050505092915050565b6000602082019050818103600083015261273581846126bd565b905092915050565b7f4e487b7100000000000000000000000000000000000000000000000000000000600052602260045260246000fd5b6000600282049050600182168061278457607f821691505b6020821081036127975761279661273d565b5b50919050565b7f4e487b7100000000000000000000000000000000000000000000000000000000600052604160045260246000fd5b7f4e487b7100000000000000000000000000000000000000000000000000000000600052603260045260246000fd5b7f4e487b7100000000000000000000000000000000000000000000000000000000600052601160045260246000fd5b600061283582611bbb565b91507fffffffffffffffffffffffffffffffffffffffffffffffffffffffffffffffff8203612867576128666127fb565b5b600182019050919050565b7f4163696f6e61646f72206e616f20656820686f73706974616c00000000000000600082015250565b60006128a8601983611c44565b91506128b382612872565b602082019050919050565b600060208201905081810360008301526128d78161289b565b9050919050565b7f456e64657265636f20696e76616c69646f3a2070616369656e74650000000000600082015250565b6000612914601b83611c44565b915061291f826128de565b602082019050919050565b6000602082019050818103600083015261294381612907565b9050919050565b7f436f6e73756c74612065206578616d6f73206e616f2073616f20646f206d657360008201527f6d6f2070616369656e7465000000000000000000000000000000000000000000602082015250565b60006129a6602b83611c44565b91506129b18261294a565b604082019050919050565b600060208201905081810360008301526129d581612999565b9050919050565b7f4578616d65206a61206578697374650000000000000000000000000000000000600082015250565b6000612a12600f83611c44565b9150612a1d826129dc565b602082019050919050565b60006020820190508181036000830152612a4181612a05565b9050919050565b600082905092915050565b60008190508160005260206000209050919050565b60006020601f8301049050919050565b600082821b905092915050565b600060088302612ab57fffffffffffffffffffffffffffffffffffffffffffffffffffffffffffffffff82612a78565b612abf8683612a78565b95508019841693508086168417925050509392505050565b6000819050919050565b6000612afc612af7612af284611bbb565b612ad7565b611bbb565b9050919050565b6000819050919050565b612b1683612ae1565b612b2a612b2282612b03565b848454612a85565b825550505050565b600090565b612b3f612b32565b612b4a818484612b0d565b505050565b5b81811015612b6e57612b63600082612b37565b600181019050612b50565b5050565b601f821115612bb357612b8481612a53565b612b8d84612a68565b81016020851015612b9c578190505b612bb0612ba885612a68565b830182612b4f565b50505b505050565b600082821c905092915050565b6000612bd660001984600802612bb8565b1980831691505092915050565b6000612bef8383612bc5565b9150826002028217905092915050565b612c098383612a48565b67ffffffffffffffff811115612c2257612c2161279d565b5b612c2c825461276c565b612c37828285612b72565b6000601f831160018114612c665760008415612c54578287013590505b612c5e8582612be3565b865550612cc6565b601f198416612c7486612a53565b60005b82811015612c9c57848901358255600182019150602085019450602081019050612c77565b86831015612cb95784890135612cb5601f891682612bc5565b8355505b6001600288020188555050505b50505050505050565b7f494420636f6e73756c7461206e616f20706f6465207365722030000000000000600082015250565b6000612d05601a83611c44565b9150612d1082612ccf565b602082019050919050565b60006020820190508181036000830152612d3481612cf8565b9050919050565b7f496e64657265636f20696e76616c69646f3a206d656469636f00000000000000600082015250565b6000612d71601983611c44565b9150612d7c82612d3b565b602082019050919050565b60006020820190508181036000830152612da081612d64565b9050919050565b7f496e64657265636f20696e76616c69646f3a2070616369656e74650000000000600082015250565b6000612ddd601b83611c44565b9150612de882612da7565b602082019050919050565b60006020820190508181036000830152612e0c81612dd0565b9050919050565b7f436f6e73756c7461206a61206578697374656e74650000000000000000000000600082015250565b6000612e49601583611c44565b9150612e5482612e13565b602082019050919050565b60006020820190508181036000830152612e7881612e3c565b905091905056fea264697066735822122094777a26151ded839e0bba841d04d951be31558a966cbd8b2338af4cf2e700be64736f6c63430008110033",
  "linkReferences": {},
  "deployedLinkReferences": {}
}