{
  "_format": "hh-sol-artifact-1",
  "contractName": "MedicalData",
  "sourceName": "contracts/MedicalData.sol",
  "abi": [
    {
      "inputs": [],
      "stateMutability": "nonpayable",
      "type": "constructor"
    },
    {
      "inputs": [
        {
          "internalType": "uint256",
          "name": "",
          "type": "uint256"
        }
      ],
      "name": "exames",
      "outputs": [
        {
          "internalType": "bool",
          "name": "exists",
          "type": "bool"
        },
        {
          "internalType": "uint256",
          "name": "IDexame",
          "type": "uint256"
        },
        {
          "internalType": "string",
          "name": "nome",
          "type": "string"
        },
        {
          "internalType": "address",
          "name": "hospital",
          "type": "address"
        },
        {
          "internalType": "address",
          "name": "paciente",
          "type": "address"
        },
        {
          "internalType": "uint256",
          "name": "epochTime",
          "type": "uint256"
        },
        {
          "internalType": "string",
          "name": "laudo",
          "type": "string"
        },
        {
          "internalType": "uint256",
          "name": "IDconsulta",
          "type": "uint256"
        }
      ],
      "stateMutability": "view",
      "type": "function"
    },
    {
      "inputs": [
        {
          "internalType": "uint256",
          "name": "IDconsulta",
          "type": "uint256"
        }
      ],
      "name": "getConsulta",
      "outputs": [
        {
          "components": [
            {
              "internalType": "bool",
              "name": "exists",
              "type": "bool"
            },
            {
              "internalType": "uint256",
              "name": "IDconsulta",
              "type": "uint256"
            },
            {
              "internalType": "string",
              "name": "area",
              "type": "string"
            },
            {
              "internalType": "string",
              "name": "especificacao",
              "type": "string"
            },
            {
              "internalType": "address",
              "name": "hospital",
              "type": "address"
            },
            {
              "internalType": "address",
              "name": "medico",
              "type": "address"
            },
            {
              "internalType": "address",
              "name": "paciente",
              "type": "address"
            },
            {
              "internalType": "uint256",
              "name": "epochTime",
              "type": "uint256"
            },
            {
              "internalType": "string",
              "name": "laudo",
              "type": "string"
            },
            {
              "internalType": "uint256[]",
              "name": "IDexames",
              "type": "uint256[]"
            }
          ],
          "internalType": "struct Consulta",
          "name": "",
          "type": "tuple"
        }
      ],
      "stateMutability": "view",
      "type": "function"
    },
    {
      "inputs": [
        {
          "internalType": "address",
          "name": "medico",
          "type": "address"
        },
        {
          "internalType": "address",
          "name": "paciente",
          "type": "address"
        }
      ],
      "name": "getConsultasMedicoPaciente",
      "outputs": [
        {
          "components": [
            {
              "internalType": "bool",
              "name": "exists",
              "type": "bool"
            },
            {
              "internalType": "uint256",
              "name": "IDconsulta",
              "type": "uint256"
            },
            {
              "internalType": "string",
              "name": "area",
              "type": "string"
            },
            {
              "internalType": "string",
              "name": "especificacao",
              "type": "string"
            },
            {
              "internalType": "address",
              "name": "hospital",
              "type": "address"
            },
            {
              "internalType": "address",
              "name": "medico",
              "type": "address"
            },
            {
              "internalType": "address",
              "name": "paciente",
              "type": "address"
            },
            {
              "internalType": "uint256",
              "name": "epochTime",
              "type": "uint256"
            },
            {
              "internalType": "string",
              "name": "laudo",
              "type": "string"
            },
            {
              "internalType": "uint256[]",
              "name": "IDexames",
              "type": "uint256[]"
            }
          ],
          "internalType": "struct Consulta[]",
          "name": "",
          "type": "tuple[]"
        }
      ],
      "stateMutability": "view",
      "type": "function"
    },
    {
      "inputs": [
        {
          "internalType": "address",
          "name": "paciente",
          "type": "address"
        }
      ],
      "name": "getConsultasPaciente",
      "outputs": [
        {
          "components": [
            {
              "internalType": "bool",
              "name": "exists",
              "type": "bool"
            },
            {
              "internalType": "uint256",
              "name": "IDconsulta",
              "type": "uint256"
            },
            {
              "internalType": "string",
              "name": "area",
              "type": "string"
            },
            {
              "internalType": "string",
              "name": "especificacao",
              "type": "string"
            },
            {
              "internalType": "address",
              "name": "hospital",
              "type": "address"
            },
            {
              "internalType": "address",
              "name": "medico",
              "type": "address"
            },
            {
              "internalType": "address",
              "name": "paciente",
              "type": "address"
            },
            {
              "internalType": "uint256",
              "name": "epochTime",
              "type": "uint256"
            },
            {
              "internalType": "string",
              "name": "laudo",
              "type": "string"
            },
            {
              "internalType": "uint256[]",
              "name": "IDexames",
              "type": "uint256[]"
            }
          ],
          "internalType": "struct Consulta[]",
          "name": "",
          "type": "tuple[]"
        }
      ],
      "stateMutability": "view",
      "type": "function"
    },
    {
      "inputs": [
        {
          "internalType": "address",
          "name": "paciente",
          "type": "address"
        }
      ],
      "name": "getExamesPaciente",
      "outputs": [
        {
          "components": [
            {
              "internalType": "bool",
              "name": "exists",
              "type": "bool"
            },
            {
              "internalType": "uint256",
              "name": "IDexame",
              "type": "uint256"
            },
            {
              "internalType": "string",
              "name": "nome",
              "type": "string"
            },
            {
              "internalType": "address",
              "name": "hospital",
              "type": "address"
            },
            {
              "internalType": "address",
              "name": "paciente",
              "type": "address"
            },
            {
              "internalType": "uint256",
              "name": "epochTime",
              "type": "uint256"
            },
            {
              "internalType": "string",
              "name": "laudo",
              "type": "string"
            },
            {
              "internalType": "uint256",
              "name": "IDconsulta",
              "type": "uint256"
            }
          ],
          "internalType": "struct Exame[]",
          "name": "",
          "type": "tuple[]"
        }
      ],
      "stateMutability": "view",
      "type": "function"
    },
    {
      "inputs": [
        {
          "internalType": "address",
          "name": "paciente",
          "type": "address"
        }
      ],
      "name": "getHistory",
      "outputs": [
        {
          "components": [
            {
              "internalType": "bool",
              "name": "exists",
              "type": "bool"
            },
            {
              "internalType": "uint256",
              "name": "IDconsulta",
              "type": "uint256"
            },
            {
              "internalType": "string",
              "name": "area",
              "type": "string"
            },
            {
              "internalType": "string",
              "name": "especificacao",
              "type": "string"
            },
            {
              "internalType": "address",
              "name": "hospital",
              "type": "address"
            },
            {
              "internalType": "address",
              "name": "medico",
              "type": "address"
            },
            {
              "internalType": "address",
              "name": "paciente",
              "type": "address"
            },
            {
              "internalType": "uint256",
              "name": "epochTime",
              "type": "uint256"
            },
            {
              "internalType": "string",
              "name": "laudo",
              "type": "string"
            },
            {
              "internalType": "uint256[]",
              "name": "IDexames",
              "type": "uint256[]"
            }
          ],
          "internalType": "struct Consulta[]",
          "name": "",
          "type": "tuple[]"
        },
        {
          "components": [
            {
              "internalType": "bool",
              "name": "exists",
              "type": "bool"
            },
            {
              "internalType": "uint256",
              "name": "IDexame",
              "type": "uint256"
            },
            {
              "internalType": "string",
              "name": "nome",
              "type": "string"
            },
            {
              "internalType": "address",
              "name": "hospital",
              "type": "address"
            },
            {
              "internalType": "address",
              "name": "paciente",
              "type": "address"
            },
            {
              "internalType": "uint256",
              "name": "epochTime",
              "type": "uint256"
            },
            {
              "internalType": "string",
              "name": "laudo",
              "type": "string"
            },
            {
              "internalType": "uint256",
              "name": "IDconsulta",
              "type": "uint256"
            }
          ],
          "internalType": "struct Exame[]",
          "name": "",
          "type": "tuple[]"
        }
      ],
      "stateMutability": "view",
      "type": "function"
    },
    {
      "inputs": [
        {
          "internalType": "address",
          "name": "medico",
          "type": "address"
        },
        {
          "internalType": "address",
          "name": "paciente",
          "type": "address"
        }
      ],
      "name": "getIDConsultasMedicoPaciente",
      "outputs": [
        {
          "internalType": "uint256[]",
          "name": "",
          "type": "uint256[]"
        }
      ],
      "stateMutability": "view",
      "type": "function"
    },
    {
      "inputs": [
        {
          "internalType": "address",
          "name": "paciente",
          "type": "address"
        }
      ],
      "name": "getIDConsultasPaciente",
      "outputs": [
        {
          "internalType": "uint256[]",
          "name": "",
          "type": "uint256[]"
        }
      ],
      "stateMutability": "view",
      "type": "function"
    },
    {
      "inputs": [
        {
          "internalType": "address",
          "name": "paciente",
          "type": "address"
        }
      ],
      "name": "getIDExamesPaciente",
      "outputs": [
        {
          "internalType": "uint256[]",
          "name": "",
          "type": "uint256[]"
        }
      ],
      "stateMutability": "view",
      "type": "function"
    },
    {
      "inputs": [],
      "name": "getPacientes",
      "outputs": [
        {
          "internalType": "address[]",
          "name": "",
          "type": "address[]"
        }
      ],
      "stateMutability": "view",
      "type": "function"
    },
    {
      "inputs": [],
      "name": "hospital",
      "outputs": [
        {
          "internalType": "address",
          "name": "",
          "type": "address"
        }
      ],
      "stateMutability": "view",
      "type": "function"
    },
    {
      "inputs": [
        {
          "components": [
            {
              "internalType": "bool",
              "name": "exists",
              "type": "bool"
            },
            {
              "internalType": "uint256",
              "name": "IDconsulta",
              "type": "uint256"
            },
            {
              "internalType": "string",
              "name": "area",
              "type": "string"
            },
            {
              "internalType": "string",
              "name": "especificacao",
              "type": "string"
            },
            {
              "internalType": "address",
              "name": "hospital",
              "type": "address"
            },
            {
              "internalType": "address",
              "name": "medico",
              "type": "address"
            },
            {
              "internalType": "address",
              "name": "paciente",
              "type": "address"
            },
            {
              "internalType": "uint256",
              "name": "epochTime",
              "type": "uint256"
            },
            {
              "internalType": "string",
              "name": "laudo",
              "type": "string"
            },
            {
              "internalType": "uint256[]",
              "name": "IDexames",
              "type": "uint256[]"
            }
          ],
          "internalType": "struct Consulta[]",
          "name": "_consultas",
          "type": "tuple[]"
        },
        {
          "components": [
            {
              "internalType": "bool",
              "name": "exists",
              "type": "bool"
            },
            {
              "internalType": "uint256",
              "name": "IDexame",
              "type": "uint256"
            },
            {
              "internalType": "string",
              "name": "nome",
              "type": "string"
            },
            {
              "internalType": "address",
              "name": "hospital",
              "type": "address"
            },
            {
              "internalType": "address",
              "name": "paciente",
              "type": "address"
            },
            {
              "internalType": "uint256",
              "name": "epochTime",
              "type": "uint256"
            },
            {
              "internalType": "string",
              "name": "laudo",
              "type": "string"
            },
            {
              "internalType": "uint256",
              "name": "IDconsulta",
              "type": "uint256"
            }
          ],
          "internalType": "struct Exame[]",
          "name": "_exames",
          "type": "tuple[]"
        }
      ],
      "name": "importHistory",
      "outputs": [],
      "stateMutability": "nonpayable",
      "type": "function"
    },
    {
      "inputs": [
        {
          "internalType": "uint256",
          "name": "IDconsulta",
          "type": "uint256"
        },
        {
          "internalType": "string",
          "name": "area",
          "type": "string"
        },
        {
          "internalType": "string",
          "name": "especificacao",
          "type": "string"
        },
        {
          "internalType": "address",
          "name": "medico",
          "type": "address"
        },
        {
          "internalType": "address",
          "name": "paciente",
          "type": "address"
        },
        {
          "internalType": "uint256",
          "name": "epochTime",
          "type": "uint256"
        },
        {
          "internalType": "string",
          "name": "laudo",
          "type": "string"
        }
      ],
      "name": "postConsulta",
      "outputs": [],
      "stateMutability": "nonpayable",
      "type": "function"
    },
    {
      "inputs": [
        {
          "internalType": "uint256",
          "name": "IDexame",
          "type": "uint256"
        },
        {
          "internalType": "string",
          "name": "nome",
          "type": "string"
        },
        {
          "internalType": "address",
          "name": "paciente",
          "type": "address"
        },
        {
          "internalType": "string",
          "name": "laudo",
          "type": "string"
        },
        {
          "internalType": "uint256",
          "name": "epochTime",
          "type": "uint256"
        },
        {
          "internalType": "uint256",
          "name": "consulta",
          "type": "uint256"
        }
      ],
      "name": "postExame",
      "outputs": [],
      "stateMutability": "nonpayable",
      "type": "function"
    }
  ],
  "bytecode": "0x608060405234801561001057600080fd5b50336000806101000a81548173ffffffffffffffffffffffffffffffffffffffff021916908373ffffffffffffffffffffffffffffffffffffffff160217905550613720806100606000396000f3fe608060405234801561001057600080fd5b50600436106100ea5760003560e01c8063803968111161008c578063ad4b1ecd11610066578063ad4b1ecd146102b1578063d9088aea146102cd578063f7404e5e146102e9578063fd359c3914610307576100ea565b80638039681114610232578063827ab11e14610263578063aa2fedde14610293576100ea565b806326fb3cac116100c857806326fb3cac146101865780632876ab5b146101a2578063315c0783146101d2578063323a6b1114610202576100ea565b80631f59f77a146100ef5780631fc5af5c1461012657806322edaaa614610156575b600080fd5b610109600480360381019061010491906121b1565b610337565b60405161011d9897969594939291906122d9565b60405180910390f35b610140600480360381019061013b9190612391565b6104dc565b60405161014d91906125ae565b60405180910390f35b610170600480360381019061016b91906125d0565b61057b565b60405161017d91906126bf565b60405180910390f35b6101a0600480360381019061019b919061279c565b610650565b005b6101bc60048036038101906101b79190612391565b6108bc565b6040516101c991906126bf565b60405180910390f35b6101ec60048036038101906101e791906121b1565b610953565b6040516101f9919061297b565b60405180910390f35b61021c600480360381019061021791906125d0565b610cc0565b6040516102299190612b4e565b60405180910390f35b61024c60048036038101906102479190612391565b610d9d565b60405161025a929190612b70565b60405180910390f35b61027d60048036038101906102789190612391565b610dbb565b60405161028a9190612b4e565b60405180910390f35b61029b610e5a565b6040516102a89190612ba7565b60405180910390f35b6102cb60048036038101906102c69190612c18565b610e7e565b005b6102e760048036038101906102e29190612ce7565b610f26565b005b6102f1610fd3565b6040516102fe9190612e99565b60405180910390f35b610321600480360381019061031c9190612391565b611061565b60405161032e91906126bf565b60405180910390f35b60066020528060005260406000206000915090508060000160009054906101000a900460ff169080600101549080600201805461037390612eea565b80601f016020809104026020016040519081016040528092919081815260200182805461039f90612eea565b80156103ec5780601f106103c1576101008083540402835291602001916103ec565b820191906000526020600020905b8154815290600101906020018083116103cf57829003601f168201915b5050505050908060030160009054906101000a900473ffffffffffffffffffffffffffffffffffffffff16908060040160009054906101000a900473ffffffffffffffffffffffffffffffffffffffff169080600501549080600601805461045390612eea565b80601f016020809104026020016040519081016040528092919081815260200182805461047f90612eea565b80156104cc5780601f106104a1576101008083540402835291602001916104cc565b820191906000526020600020905b8154815290600101906020018083116104af57829003601f168201915b5050505050908060070154905088565b6060610574600760008473ffffffffffffffffffffffffffffffffffffffff1673ffffffffffffffffffffffffffffffffffffffff16815260200190815260200160002080548060200260200160405190810160405280929190818152602001828054801561056a57602002820191906000526020600020905b815481526020019060010190808311610556575b50505050506110f8565b9050919050565b6060600360008473ffffffffffffffffffffffffffffffffffffffff1673ffffffffffffffffffffffffffffffffffffffff16815260200190815260200160002060008373ffffffffffffffffffffffffffffffffffffffff1673ffffffffffffffffffffffffffffffffffffffff16815260200190815260200160002080548060200260200160405190810160405280929190818152602001828054801561064357602002820191906000526020600020905b81548152602001906001019080831161062f575b5050505050905092915050565b60008054906101000a900473ffffffffffffffffffffffffffffffffffffffff1673ffffffffffffffffffffffffffffffffffffffff163373ffffffffffffffffffffffffffffffffffffffff16146106de576040517f08c379a00000000000000000000000000000000000000000000000000000000081526004016106d590612f67565b60405180910390fd5b60005b848490508110156107d15736858583818110610700576106ff612f87565b5b90506020028101906107129190612fc5565b905060008160800160208101906107299190612391565b9050600082602001359050600061074083836113dc565b90506107ba818580604001906107569190612fee565b8780606001906107669190612fee565b8960800160208101906107799190612391565b8a60a001602081019061078c9190612391565b8b60c001602081019061079f9190612391565b8c60e001358d8061010001906107b59190612fee565b611412565b5050505080806107c990613080565b9150506106e1565b5060005b828290508110156108b557368383838181106107f4576107f3612f87565b5b905060200281019061080691906130c8565b9050600081606001602081019061081d9190612391565b9050600082602001359050600061083483836113dc565b90506000808560e001351461085657610851848660e001356113dc565b610859565b60005b905061089d8286806040019061086f9190612fee565b8860800160208101906108829190612391565b898060c001906108929190612fee565b8b60a00135886117f0565b505050505080806108ad90613080565b9150506107d5565b5050505050565b6060600760008373ffffffffffffffffffffffffffffffffffffffff1673ffffffffffffffffffffffffffffffffffffffff16815260200190815260200160002080548060200260200160405190810160405280929190818152602001828054801561094757602002820191906000526020600020905b815481526020019060010190808311610933575b50505050509050919050565b61095b612067565b60016000838152602001908152602001600020604051806101400160405290816000820160009054906101000a900460ff16151515158152602001600182015481526020016002820180546109af90612eea565b80601f01602080910402602001604051908101604052809291908181526020018280546109db90612eea565b8015610a285780601f106109fd57610100808354040283529160200191610a28565b820191906000526020600020905b815481529060010190602001808311610a0b57829003601f168201915b50505050508152602001600382018054610a4190612eea565b80601f0160208091040260200160405190810160405280929190818152602001828054610a6d90612eea565b8015610aba5780601f10610a8f57610100808354040283529160200191610aba565b820191906000526020600020905b815481529060010190602001808311610a9d57829003601f168201915b505050505081526020016004820160009054906101000a900473ffffffffffffffffffffffffffffffffffffffff1673ffffffffffffffffffffffffffffffffffffffff1673ffffffffffffffffffffffffffffffffffffffff1681526020016005820160009054906101000a900473ffffffffffffffffffffffffffffffffffffffff1673ffffffffffffffffffffffffffffffffffffffff1673ffffffffffffffffffffffffffffffffffffffff1681526020016006820160009054906101000a900473ffffffffffffffffffffffffffffffffffffffff1673ffffffffffffffffffffffffffffffffffffffff1673ffffffffffffffffffffffffffffffffffffffff16815260200160078201548152602001600882018054610bdf90612eea565b80601f0160208091040260200160405190810160405280929190818152602001828054610c0b90612eea565b8015610c585780601f10610c2d57610100808354040283529160200191610c58565b820191906000526020600020905b815481529060010190602001808311610c3b57829003601f168201915b5050505050815260200160098201805480602002602001604051908101604052809291908181526020018280548015610cb057602002820191906000526020600020905b815481526020019060010190808311610c9c575b5050505050815250509050919050565b6060610d95600360008573ffffffffffffffffffffffffffffffffffffffff1673ffffffffffffffffffffffffffffffffffffffff16815260200190815260200160002060008473ffffffffffffffffffffffffffffffffffffffff1673ffffffffffffffffffffffffffffffffffffffff168152602001908152602001600020805480602002602001604051908101604052809291908181526020018280548015610d8b57602002820191906000526020600020905b815481526020019060010190808311610d77575b5050505050611b3d565b905092915050565b606080610da983610dbb565b610db2846104dc565b91509150915091565b6060610e53600260008473ffffffffffffffffffffffffffffffffffffffff1673ffffffffffffffffffffffffffffffffffffffff168152602001908152602001600020805480602002602001604051908101604052809291908181526020018280548015610e4957602002820191906000526020600020905b815481526020019060010190808311610e35575b5050505050611b3d565b9050919050565b60008054906101000a900473ffffffffffffffffffffffffffffffffffffffff1681565b60008054906101000a900473ffffffffffffffffffffffffffffffffffffffff1673ffffffffffffffffffffffffffffffffffffffff163373ffffffffffffffffffffffffffffffffffffffff1614610f0c576040517f08c379a0000000000000000000000000000000000000000000000000000000008152600401610f0390612f67565b60405180910390fd5b610f1c88888888888888886117f0565b5050505050505050565b60008054906101000a900473ffffffffffffffffffffffffffffffffffffffff1673ffffffffffffffffffffffffffffffffffffffff163373ffffffffffffffffffffffffffffffffffffffff1614610fb4576040517f08c379a0000000000000000000000000000000000000000000000000000000008152600401610fab90612f67565b60405180910390fd5b610fc78a8a8a8a8a338b8b8b8b8b611412565b50505050505050505050565b6060600580548060200260200160405190810160405280929190818152602001828054801561105757602002820191906000526020600020905b8160009054906101000a900473ffffffffffffffffffffffffffffffffffffffff1673ffffffffffffffffffffffffffffffffffffffff168152602001906001019080831161100d575b5050505050905090565b6060600260008373ffffffffffffffffffffffffffffffffffffffff1673ffffffffffffffffffffffffffffffffffffffff1681526020019081526020016000208054806020026020016040519081016040528092919081815260200182805480156110ec57602002820191906000526020600020905b8154815260200190600101908083116110d8575b50505050509050919050565b60606000825167ffffffffffffffff811115611117576111166130f1565b5b60405190808252806020026020018201604052801561115057816020015b61113d6120fe565b8152602001906001900390816111355790505b50905060005b83518110156113d2576006600085838151811061117657611175612f87565b5b60200260200101518152602001908152602001600020604051806101000160405290816000820160009054906101000a900460ff16151515158152602001600182015481526020016002820180546111cd90612eea565b80601f01602080910402602001604051908101604052809291908181526020018280546111f990612eea565b80156112465780601f1061121b57610100808354040283529160200191611246565b820191906000526020600020905b81548152906001019060200180831161122957829003601f168201915b505050505081526020016003820160009054906101000a900473ffffffffffffffffffffffffffffffffffffffff1673ffffffffffffffffffffffffffffffffffffffff1673ffffffffffffffffffffffffffffffffffffffff1681526020016004820160009054906101000a900473ffffffffffffffffffffffffffffffffffffffff1673ffffffffffffffffffffffffffffffffffffffff1673ffffffffffffffffffffffffffffffffffffffff1681526020016005820154815260200160068201805461131590612eea565b80601f016020809104026020016040519081016040528092919081815260200182805461134190612eea565b801561138e5780601f106113635761010080835404028352916020019161138e565b820191906000526020600020905b81548152906001019060200180831161137157829003601f168201915b505050505081526020016007820154815250508282815181106113b4576113b3612f87565b5b602002602001018190525080806113ca90613080565b915050611156565b5080915050919050565b600082826040516020016113f1929190613120565b6040516020818303038152906040528051906020012060001c905092915050565b60008b03611455576040517f08c379a000000000000000000000000000000000000000000000000000000000815260040161144c90613195565b60405180910390fd5b600073ffffffffffffffffffffffffffffffffffffffff168573ffffffffffffffffffffffffffffffffffffffff16036114c4576040517f08c379a00000000000000000000000000000000000000000000000000000000081526004016114bb90613201565b60405180910390fd5b600073ffffffffffffffffffffffffffffffffffffffff168473ffffffffffffffffffffffffffffffffffffffff1603611533576040517f08c379a000000000000000000000000000000000000000000000000000000000815260040161152a9061326d565b60405180910390fd5b6000600160008d815260200190815260200160002090508060000160009054906101000a900460ff161561159c576040517f08c379a0000000000000000000000000000000000000000000000000000000008152600401611593906132d9565b60405180910390fd5b60018160000160006101000a81548160ff0219169083151502179055508b81600101819055508a8a8260020191826115d59291906134b0565b5088888260030191826115e99291906134b0565b50868160040160006101000a81548173ffffffffffffffffffffffffffffffffffffffff021916908373ffffffffffffffffffffffffffffffffffffffff160217905550858160050160006101000a81548173ffffffffffffffffffffffffffffffffffffffff021916908373ffffffffffffffffffffffffffffffffffffffff160217905550848160060160006101000a81548173ffffffffffffffffffffffffffffffffffffffff021916908373ffffffffffffffffffffffffffffffffffffffff16021790555083816007018190555082828260080191826116cf9291906134b0565b50600260008673ffffffffffffffffffffffffffffffffffffffff1673ffffffffffffffffffffffffffffffffffffffff1681526020019081526020016000208c9080600181540180825580915050600190039060005260206000200160009091909190915055600360008773ffffffffffffffffffffffffffffffffffffffff1673ffffffffffffffffffffffffffffffffffffffff16815260200190815260200160002060008673ffffffffffffffffffffffffffffffffffffffff1673ffffffffffffffffffffffffffffffffffffffff1681526020019081526020016000208c90806001815401808255809150506001900390600052602060002001600090919091909150556117e285611f57565b505050505050505050505050565b600073ffffffffffffffffffffffffffffffffffffffff168573ffffffffffffffffffffffffffffffffffffffff160361185f576040517f08c379a0000000000000000000000000000000000000000000000000000000008152600401611856906135cc565b60405180910390fd5b60008114806118cf57508473ffffffffffffffffffffffffffffffffffffffff166001600083815260200190815260200160002060060160009054906101000a900473ffffffffffffffffffffffffffffffffffffffff1673ffffffffffffffffffffffffffffffffffffffff16145b61190e576040517f08c379a00000000000000000000000000000000000000000000000000000000081526004016119059061365e565b60405180910390fd5b6000600660008a815260200190815260200160002090508060000160009054906101000a900460ff1615611977576040517f08c379a000000000000000000000000000000000000000000000000000000000815260040161196e906136ca565b60405180910390fd5b60018160000160006101000a81548160ff02191690831515021790555088816001018190555087878260020191826119b09291906134b0565b50858160040160006101000a81548173ffffffffffffffffffffffffffffffffffffffff021916908373ffffffffffffffffffffffffffffffffffffffff16021790555060008054906101000a900473ffffffffffffffffffffffffffffffffffffffff168160030160006101000a81548173ffffffffffffffffffffffffffffffffffffffff021916908373ffffffffffffffffffffffffffffffffffffffff1602179055508484826006019182611a6a9291906134b0565b5082816005018190555081816007018190555060008214611ac357600160008381526020019081526020016000206009018990806001815401808255809150506001900390600052602060002001600090919091909150555b600760008773ffffffffffffffffffffffffffffffffffffffff1673ffffffffffffffffffffffffffffffffffffffff168152602001908152602001600020899080600181540180825580915050600190039060005260206000200160009091909190915055611b3286611f57565b505050505050505050565b60606000825167ffffffffffffffff811115611b5c57611b5b6130f1565b5b604051908082528060200260200182016040528015611b9557816020015b611b82612067565b815260200190600190039081611b7a5790505b50905060005b8351811015611f4d5760016000858381518110611bbb57611bba612f87565b5b60200260200101518152602001908152602001600020604051806101400160405290816000820160009054906101000a900460ff1615151515815260200160018201548152602001600282018054611c1290612eea565b80601f0160208091040260200160405190810160405280929190818152602001828054611c3e90612eea565b8015611c8b5780601f10611c6057610100808354040283529160200191611c8b565b820191906000526020600020905b815481529060010190602001808311611c6e57829003601f168201915b50505050508152602001600382018054611ca490612eea565b80601f0160208091040260200160405190810160405280929190818152602001828054611cd090612eea565b8015611d1d5780601f10611cf257610100808354040283529160200191611d1d565b820191906000526020600020905b815481529060010190602001808311611d0057829003601f168201915b505050505081526020016004820160009054906101000a900473ffffffffffffffffffffffffffffffffffffffff1673ffffffffffffffffffffffffffffffffffffffff1673ffffffffffffffffffffffffffffffffffffffff1681526020016005820160009054906101000a900473ffffffffffffffffffffffffffffffffffffffff1673ffffffffffffffffffffffffffffffffffffffff1673ffffffffffffffffffffffffffffffffffffffff1681526020016006820160009054906101000a900473ffffffffffffffffffffffffffffffffffffffff1673ffffffffffffffffffffffffffffffffffffffff1673ffffffffffffffffffffffffffffffffffffffff16815260200160078201548152602001600882018054611e4290612eea565b80601f0160208091040260200160405190810160405280929190818152602001828054611e6e90612eea565b8015611ebb5780601f10611e9057610100808354040283529160200191611ebb565b820191906000526020600020905b815481529060010190602001808311611e9e57829003601f168201915b5050505050815260200160098201805480602002602001604051908101604052809291908181526020018280548015611f1357602002820191906000526020600020905b815481526020019060010190808311611eff575b505050505081525050828281518110611f2f57611f2e612f87565b5b60200260200101819052508080611f4590613080565b915050611b9b565b5080915050919050565b600460008273ffffffffffffffffffffffffffffffffffffffff1673ffffffffffffffffffffffffffffffffffffffff16815260200190815260200160002060009054906101000a900460ff16612064576001600460008373ffffffffffffffffffffffffffffffffffffffff1673ffffffffffffffffffffffffffffffffffffffff16815260200190815260200160002060006101000a81548160ff0219169083151502179055506005819080600181540180825580915050600190039060005260206000200160009091909190916101000a81548173ffffffffffffffffffffffffffffffffffffffff021916908373ffffffffffffffffffffffffffffffffffffffff1602179055505b50565b604051806101400160405280600015158152602001600081526020016060815260200160608152602001600073ffffffffffffffffffffffffffffffffffffffff168152602001600073ffffffffffffffffffffffffffffffffffffffff168152602001600073ffffffffffffffffffffffffffffffffffffffff1681526020016000815260200160608152602001606081525090565b6040518061010001604052806000151581526020016000815260200160608152602001600073ffffffffffffffffffffffffffffffffffffffff168152602001600073ffffffffffffffffffffffffffffffffffffffff1681526020016000815260200160608152602001600081525090565b600080fd5b600080fd5b6000819050919050565b61218e8161217b565b811461219957600080fd5b50565b6000813590506121ab81612185565b92915050565b6000602082840312156121c7576121c6612171565b5b60006121d58482850161219c565b91505092915050565b60008115159050919050565b6121f3816121de565b82525050565b6122028161217b565b82525050565b600081519050919050565b600082825260208201905092915050565b60005b83811015612242578082015181840152602081019050612227565b60008484015250505050565b6000601f19601f8301169050919050565b600061226a82612208565b6122748185612213565b9350612284818560208601612224565b61228d8161224e565b840191505092915050565b600073ffffffffffffffffffffffffffffffffffffffff82169050919050565b60006122c382612298565b9050919050565b6122d3816122b8565b82525050565b6000610100820190506122ef600083018b6121ea565b6122fc602083018a6121f9565b818103604083015261230e818961225f565b905061231d60608301886122ca565b61232a60808301876122ca565b61233760a08301866121f9565b81810360c0830152612349818561225f565b905061235860e08301846121f9565b9998505050505050505050565b61236e816122b8565b811461237957600080fd5b50565b60008135905061238b81612365565b92915050565b6000602082840312156123a7576123a6612171565b5b60006123b58482850161237c565b91505092915050565b600081519050919050565b600082825260208201905092915050565b6000819050602082019050919050565b6123f3816121de565b82525050565b6124028161217b565b82525050565b600082825260208201905092915050565b600061242482612208565b61242e8185612408565b935061243e818560208601612224565b6124478161224e565b840191505092915050565b61245b816122b8565b82525050565b60006101008301600083015161247a60008601826123ea565b50602083015161248d60208601826123f9565b50604083015184820360408601526124a58282612419565b91505060608301516124ba6060860182612452565b5060808301516124cd6080860182612452565b5060a08301516124e060a08601826123f9565b5060c083015184820360c08601526124f88282612419565b91505060e083015161250d60e08601826123f9565b508091505092915050565b60006125248383612461565b905092915050565b6000602082019050919050565b6000612544826123be565b61254e81856123c9565b935083602082028501612560856123da565b8060005b8581101561259c578484038952815161257d8582612518565b94506125888361252c565b925060208a01995050600181019050612564565b50829750879550505050505092915050565b600060208201905081810360008301526125c88184612539565b905092915050565b600080604083850312156125e7576125e6612171565b5b60006125f58582860161237c565b92505060206126068582860161237c565b9150509250929050565b600081519050919050565b600082825260208201905092915050565b6000819050602082019050919050565b600061264883836123f9565b60208301905092915050565b6000602082019050919050565b600061266c82612610565b612676818561261b565b93506126818361262c565b8060005b838110156126b2578151612699888261263c565b97506126a483612654565b925050600181019050612685565b5085935050505092915050565b600060208201905081810360008301526126d98184612661565b905092915050565b600080fd5b600080fd5b600080fd5b60008083601f840112612706576127056126e1565b5b8235905067ffffffffffffffff811115612723576127226126e6565b5b60208301915083602082028301111561273f5761273e6126eb565b5b9250929050565b60008083601f84011261275c5761275b6126e1565b5b8235905067ffffffffffffffff811115612779576127786126e6565b5b602083019150836020820283011115612795576127946126eb565b5b9250929050565b600080600080604085870312156127b6576127b5612171565b5b600085013567ffffffffffffffff8111156127d4576127d3612176565b5b6127e0878288016126f0565b9450945050602085013567ffffffffffffffff81111561280357612802612176565b5b61280f87828801612746565b925092505092959194509250565b600082825260208201905092915050565b600061283982612610565b612843818561281d565b935061284e8361262c565b8060005b8381101561287f578151612866888261263c565b975061287183612654565b925050600181019050612852565b5085935050505092915050565b6000610140830160008301516128a560008601826123ea565b5060208301516128b860208601826123f9565b50604083015184820360408601526128d08282612419565b915050606083015184820360608601526128ea8282612419565b91505060808301516128ff6080860182612452565b5060a083015161291260a0860182612452565b5060c083015161292560c0860182612452565b5060e083015161293860e08601826123f9565b506101008301518482036101008601526129528282612419565b91505061012083015184820361012086015261296e828261282e565b9150508091505092915050565b60006020820190508181036000830152612995818461288c565b905092915050565b600081519050919050565b600082825260208201905092915050565b6000819050602082019050919050565b6000610140830160008301516129e260008601826123ea565b5060208301516129f560208601826123f9565b5060408301518482036040860152612a0d8282612419565b91505060608301518482036060860152612a278282612419565b9150506080830151612a3c6080860182612452565b5060a0830151612a4f60a0860182612452565b5060c0830151612a6260c0860182612452565b5060e0830151612a7560e08601826123f9565b50610100830151848203610100860152612a8f8282612419565b915050610120830151848203610120860152612aab828261282e565b9150508091505092915050565b6000612ac483836129c9565b905092915050565b6000602082019050919050565b6000612ae48261299d565b612aee81856129a8565b935083602082028501612b00856129b9565b8060005b85811015612b3c5784840389528151612b1d8582612ab8565b9450612b2883612acc565b925060208a01995050600181019050612b04565b50829750879550505050505092915050565b60006020820190508181036000830152612b688184612ad9565b905092915050565b60006040820190508181036000830152612b8a8185612ad9565b90508181036020830152612b9e8184612539565b90509392505050565b6000602082019050612bbc60008301846122ca565b92915050565b60008083601f840112612bd857612bd76126e1565b5b8235905067ffffffffffffffff811115612bf557612bf46126e6565b5b602083019150836001820283011115612c1157612c106126eb565b5b9250929050565b60008060008060008060008060c0898b031215612c3857612c37612171565b5b6000612c468b828c0161219c565b985050602089013567ffffffffffffffff811115612c6757612c66612176565b5b612c738b828c01612bc2565b97509750506040612c868b828c0161237c565b955050606089013567ffffffffffffffff811115612ca757612ca6612176565b5b612cb38b828c01612bc2565b94509450506080612cc68b828c0161219c565b92505060a0612cd78b828c0161219c565b9150509295985092959890939650565b60008060008060008060008060008060e08b8d031215612d0a57612d09612171565b5b6000612d188d828e0161219c565b9a505060208b013567ffffffffffffffff811115612d3957612d38612176565b5b612d458d828e01612bc2565b995099505060408b013567ffffffffffffffff811115612d6857612d67612176565b5b612d748d828e01612bc2565b97509750506060612d878d828e0161237c565b9550506080612d988d828e0161237c565b94505060a0612da98d828e0161219c565b93505060c08b013567ffffffffffffffff811115612dca57612dc9612176565b5b612dd68d828e01612bc2565b92509250509295989b9194979a5092959850565b600081519050919050565b600082825260208201905092915050565b6000819050602082019050919050565b6000612e228383612452565b60208301905092915050565b6000602082019050919050565b6000612e4682612dea565b612e508185612df5565b9350612e5b83612e06565b8060005b83811015612e8c578151612e738882612e16565b9750612e7e83612e2e565b925050600181019050612e5f565b5085935050505092915050565b60006020820190508181036000830152612eb38184612e3b565b905092915050565b7f4e487b7100000000000000000000000000000000000000000000000000000000600052602260045260246000fd5b60006002820490506001821680612f0257607f821691505b602082108103612f1557612f14612ebb565b5b50919050565b7f4163696f6e61646f72206e616f20656820686f73706974616c00000000000000600082015250565b6000612f51601983612213565b9150612f5c82612f1b565b602082019050919050565b60006020820190508181036000830152612f8081612f44565b9050919050565b7f4e487b7100000000000000000000000000000000000000000000000000000000600052603260045260246000fd5b600080fd5b600080fd5b600080fd5b60008235600161014003833603038112612fe257612fe1612fb6565b5b80830191505092915050565b6000808335600160200384360303811261300b5761300a612fb6565b5b80840192508235915067ffffffffffffffff82111561302d5761302c612fbb565b5b60208301925060018202360383131561304957613048612fc0565b5b509250929050565b7f4e487b7100000000000000000000000000000000000000000000000000000000600052601160045260246000fd5b600061308b8261217b565b91507fffffffffffffffffffffffffffffffffffffffffffffffffffffffffffffffff82036130bd576130bc613051565b5b600182019050919050565b600082356001610100038336030381126130e5576130e4612fb6565b5b80830191505092915050565b7f4e487b7100000000000000000000000000000000000000000000000000000000600052604160045260246000fd5b600060408201905061313560008301856122ca565b61314260208301846121f9565b9392505050565b7f494420636f6e73756c7461206e616f20706f6465207365722030000000000000600082015250565b600061317f601a83612213565b915061318a82613149565b602082019050919050565b600060208201905081810360008301526131ae81613172565b9050919050565b7f496e64657265636f20696e76616c69646f3a206d656469636f00000000000000600082015250565b60006131eb601983612213565b91506131f6826131b5565b602082019050919050565b6000602082019050818103600083015261321a816131de565b9050919050565b7f496e64657265636f20696e76616c69646f3a2070616369656e74650000000000600082015250565b6000613257601b83612213565b915061326282613221565b602082019050919050565b600060208201905081810360008301526132868161324a565b9050919050565b7f436f6e73756c7461206a61206578697374656e74650000000000000000000000600082015250565b60006132c3601583612213565b91506132ce8261328d565b602082019050919050565b600060208201905081810360008301526132f2816132b6565b9050919050565b600082905092915050565b60008190508160005260206000209050919050565b60006020601f8301049050919050565b600082821b905092915050565b6000600883026133667fffffffffffffffffffffffffffffffffffffffffffffffffffffffffffffffff82613329565b6133708683613329565b95508019841693508086168417925050509392505050565b6000819050919050565b60006133ad6133a86133a38461217b565b613388565b61217b565b9050919050565b6000819050919050565b6133c783613392565b6133db6133d3826133b4565b848454613336565b825550505050565b600090565b6133f06133e3565b6133fb8184846133be565b505050565b5b8181101561341f576134146000826133e8565b600181019050613401565b5050565b601f8211156134645761343581613304565b61343e84613319565b8101602085101561344d578190505b61346161345985613319565b830182613400565b50505b505050565b600082821c905092915050565b600061348760001984600802613469565b1980831691505092915050565b60006134a08383613476565b9150826002028217905092915050565b6134ba83836132f9565b67ffffffffffffffff8111156134d3576134d26130f1565b5b6134dd8254612eea565b6134e8828285613423565b6000601f8311600181146135175760008415613505578287013590505b61350f8582613494565b865550613577565b601f19841661352586613304565b60005b8281101561354d57848901358255600182019150602085019450602081019050613528565b8683101561356a5784890135613566601f891682613476565b8355505b6001600288020188555050505b50505050505050565b7f456e64657265636f20696e76616c69646f3a2070616369656e74650000000000600082015250565b60006135b6601b83612213565b91506135c182613580565b602082019050919050565b600060208201905081810360008301526135e5816135a9565b9050919050565b7f436f6e73756c74612065206578616d6f73206e616f2073616f20646f206d657360008201527f6d6f2070616369656e7465000000000000000000000000000000000000000000602082015250565b6000613648602b83612213565b9150613653826135ec565b604082019050919050565b600060208201905081810360008301526136778161363b565b9050919050565b7f4578616d65206a61206578697374650000000000000000000000000000000000600082015250565b60006136b4600f83612213565b91506136bf8261367e565b602082019050919050565b600060208201905081810360008301526136e3816136a7565b905091905056fea26469706673582212204fd5f47885b3a14e7a80043bb2718cad14ce29f521c58d6c05879528cee7161e64736f6c63430008110033",
  "linkReferences": {},
  "deployedLinkReferences": {}
}